{
  "_format": "hh-sol-artifact-1",
  "contractName": "MajesticOwl",
  "sourceName": "contracts/MajesticOwl.sol",
  "abi": [
    {
      "constant": false,
      "inputs": [],
      "name": "destroy",
      "outputs": [],
      "payable": false,
      "stateMutability": "nonpayable",
      "type": "function"
    },
    {
      "constant": false,
      "inputs": [
        {
          "name": "charityAddress",
          "type": "address"
        }
      ],
      "name": "donate",
      "outputs": [],
      "payable": true,
      "stateMutability": "payable",
      "type": "function"
    },
    {
      "constant": false,
      "inputs": [
        {
          "name": "newTaxPercent",
          "type": "uint256"
        }
      ],
      "name": "setTaxAddress",
      "outputs": [],
      "payable": false,
      "stateMutability": "nonpayable",
      "type": "function"
    },
    {
      "constant": false,
      "inputs": [
        {
          "name": "newTaxAddress",
          "type": "address"
        }
      ],
      "name": "setTaxAddress",
      "outputs": [],
      "payable": false,
      "stateMutability": "nonpayable",
      "type": "function"
    },
    {
      "constant": false,
      "inputs": [
        {
          "name": "newOwner",
          "type": "address"
        }
      ],
      "name": "transferOwnership",
      "outputs": [],
      "payable": false,
      "stateMutability": "nonpayable",
      "type": "function"
    },
    {
      "inputs": [
        {
          "name": "address_",
          "type": "address"
        }
      ],
      "payable": false,
      "stateMutability": "nonpayable",
      "type": "constructor"
    },
    {
      "anonymous": false,
      "inputs": [
        {
          "indexed": true,
          "name": "_donor",
          "type": "address"
        },
        {
          "indexed": false,
          "name": "_value",
          "type": "uint256"
        }
      ],
      "name": "Donation",
      "type": "event"
    },
    {
      "anonymous": false,
      "inputs": [
        {
          "indexed": true,
          "name": "previousOwner",
          "type": "address"
        },
        {
          "indexed": true,
          "name": "newOwner",
          "type": "address"
        }
      ],
      "name": "OwnershipTransferred",
      "type": "event"
    },
    {
      "anonymous": false,
      "inputs": [
        {
          "indexed": true,
          "name": "previousTaxAddress",
          "type": "address"
        },
        {
          "indexed": true,
          "name": "newTaxAddress",
          "type": "address"
        }
      ],
      "name": "TaxAddressTransferred",
      "type": "event"
    },
    {
      "anonymous": false,
      "inputs": [
        {
          "indexed": true,
          "name": "previousPercentage",
          "type": "uint256"
        },
        {
          "indexed": true,
          "name": "newPercentage",
          "type": "uint256"
        }
      ],
      "name": "TaxPercentageTransferred",
      "type": "event"
    },
    {
      "constant": true,
      "inputs": [],
      "name": "getAddress",
      "outputs": [
        {
          "name": "",
          "type": "address"
        }
      ],
      "payable": false,
      "stateMutability": "view",
      "type": "function"
    },
    {
      "constant": true,
      "inputs": [],
      "name": "getHighestDonation",
      "outputs": [
        {
          "name": "",
          "type": "uint256"
        },
        {
          "name": "",
          "type": "address"
        }
      ],
      "payable": false,
      "stateMutability": "view",
      "type": "function"
    },
    {
      "constant": true,
      "inputs": [],
      "name": "getTotalDonationsAmount",
      "outputs": [
        {
          "name": "",
          "type": "uint256"
        }
      ],
      "payable": false,
      "stateMutability": "view",
      "type": "function"
    }
  ],
  "bytecode": "0x60c06040526005608081905264173539b7b760d91b60a09081526200002891600d919062000224565b50680ad78ebc5ac6200000600e5561115c600f5560026010556011805463ffffffff191690553480156200005b57600080fd5b5060405162002fd838038062002fd88339810160408190526200007e9162000397565b8451859085906200009790600090602085019062000224565b508051620000ad90600190602084019062000224565b505050620000ca620000c46200010b60201b60201c565b6200010f565b620000d58362000161565b620000e082620001c9565b601380546001600160a01b0319166001600160a01b039290921691909117905550620004b192505050565b3390565b600a80546001600160a01b038381166001600160a01b0319831681179093556040519116919082907f8be0079c531659141344cd1fd0a4f28419497f9722a3daafe3b4186f6b6457e090600090a35050565b600a546001600160a01b03163314620001b05760405162461bcd60e51b8152602060048201819052602482015260008051602062002fb883398151915260448201526064015b60405180910390fd5b8051620001c590600b90602084019062000224565b5050565b600a546001600160a01b03163314620002145760405162461bcd60e51b8152602060048201819052602482015260008051602062002fb88339815191526044820152606401620001a7565b8051620001c590600c9060208401905b828054620002329062000474565b90600052602060002090601f016020900481019282620002565760008555620002a1565b82601f106200027157805160ff1916838001178555620002a1565b82800160010185558215620002a1579182015b82811115620002a157825182559160200191906001019062000284565b50620002af929150620002b3565b5090565b5b80821115620002af5760008155600101620002b4565b634e487b7160e01b600052604160045260246000fd5b600082601f830112620002f257600080fd5b81516001600160401b03808211156200030f576200030f620002ca565b604051601f8301601f19908116603f011681019082821181831017156200033a576200033a620002ca565b816040528381526020925086838588010111156200035757600080fd5b600091505b838210156200037b57858201830151818301840152908201906200035c565b838211156200038d5760008385830101525b9695505050505050565b600080600080600060a08688031215620003b057600080fd5b85516001600160401b0380821115620003c857600080fd5b620003d689838a01620002e0565b96506020880151915080821115620003ed57600080fd5b620003fb89838a01620002e0565b955060408801519150808211156200041257600080fd5b6200042089838a01620002e0565b945060608801519150808211156200043757600080fd5b506200044688828901620002e0565b608088015190935090506001600160a01b03811681146200046657600080fd5b809150509295509295909350565b600181811c908216806200048957607f821691505b60208210811415620004ab57634e487b7160e01b600052602260045260246000fd5b50919050565b612af780620004c16000396000f3fe60806040526004361061027d5760003560e01c80636c0360eb1161014f578063af231a58116100c1578063d5abeb011161007a578063d5abeb0114610727578063da3ef23f1461073d578063dd0bc7441461075d578063e985e9c51461077e578063edec5f27146107c7578063f2fde38b146107e757600080fd5b8063af231a5814610672578063b88d4fde14610692578063ba4e5c49146106b2578063bbaac02f146106d2578063c6682862146106f2578063c87b56dd1461070757600080fd5b80638cc54e7f116101135780638cc54e7f146105d55780638da5cb5b146105ea57806395d89b41146106085780639c70b5121461061d578063a22cb4651461063d578063a475b5dd1461065d57600080fd5b80636c0360eb1461054b57806370a0823114610560578063715018a614610580578063773041ce146105955780637f00c7a6146105b557600080fd5b80633af32abf116101f357806344a0d68a116101ac57806344a0d68a146104925780634f6ccce7146104b257806351830227146104d257806355f804b3146104f15780635c975abb146105115780636352211e1461052b57600080fd5b80633af32abf146103ea5780633c9527641461040a5780633ccfd60b1461042a57806340c10f191461043257806342842e0e14610445578063438b63001461046557600080fd5b806313faede61161024557806313faede61461035357806318160ddd14610377578063239c70ae1461038c57806323b872dd146103a257806326d9c2e4146103c25780632f745c59146103ca57600080fd5b806301ffc9a71461028257806302329a29146102b757806306fdde03146102d9578063081812fc146102fb578063095ea7b314610333575b600080fd5b34801561028e57600080fd5b506102a261029d3660046123d7565b610807565b60405190151581526020015b60405180910390f35b3480156102c357600080fd5b506102d76102d2366004612409565b610832565b005b3480156102e557600080fd5b506102ee610878565b6040516102ae919061247c565b34801561030757600080fd5b5061031b61031636600461248f565b61090a565b6040516001600160a01b0390911681526020016102ae565b34801561033f57600080fd5b506102d761034e3660046124bf565b61099f565b34801561035f57600080fd5b50610369600e5481565b6040519081526020016102ae565b34801561038357600080fd5b50600854610369565b34801561039857600080fd5b5061036960105481565b3480156103ae57600080fd5b506102d76103bd3660046124e9565b610ab5565b6102d7610ae6565b3480156103d657600080fd5b506103696103e53660046124bf565b610bd9565b3480156103f657600080fd5b506102a2610405366004612525565b610c6f565b34801561041657600080fd5b506102d7610425366004612409565b610cd9565b6102d7610d1f565b6102d76104403660046124bf565b610d7c565b34801561045157600080fd5b506102d76104603660046124e9565b611034565b34801561047157600080fd5b50610485610480366004612525565b61104f565b6040516102ae9190612540565b34801561049e57600080fd5b506102d76104ad36600461248f565b6110f1565b3480156104be57600080fd5b506103696104cd36600461248f565b611120565b3480156104de57600080fd5b506011546102a290610100900460ff1681565b3480156104fd57600080fd5b506102d761050c366004612610565b6111b3565b34801561051d57600080fd5b506011546102a29060ff1681565b34801561053757600080fd5b5061031b61054636600461248f565b6111f4565b34801561055757600080fd5b506102ee61126b565b34801561056c57600080fd5b5061036961057b366004612525565b6112f9565b34801561058c57600080fd5b506102d7611380565b3480156105a157600080fd5b506102d76105b0366004612525565b6113b4565b3480156105c157600080fd5b506102d76105d036600461248f565b611400565b3480156105e157600080fd5b506102ee61142f565b3480156105f657600080fd5b50600a546001600160a01b031661031b565b34801561061457600080fd5b506102ee61143c565b34801561062957600080fd5b506011546102a29062010000900460ff1681565b34801561064957600080fd5b506102d7610658366004612659565b61144b565b34801561066957600080fd5b506102d7611456565b34801561067e57600080fd5b506102d761068d366004612525565b611491565b34801561069e57600080fd5b506102d76106ad36600461268c565b6114dd565b3480156106be57600080fd5b5061031b6106cd36600461248f565b61150f565b3480156106de57600080fd5b506102d76106ed366004612610565b611539565b3480156106fe57600080fd5b506102ee611576565b34801561071357600080fd5b506102ee61072236600461248f565b611583565b34801561073357600080fd5b50610369600f5481565b34801561074957600080fd5b506102d7610758366004612610565b611702565b34801561076957600080fd5b506011546102a2906301000000900460ff1681565b34801561078a57600080fd5b506102a2610799366004612708565b6001600160a01b03918216600090815260056020908152604080832093909416825291909152205460ff1690565b3480156107d357600080fd5b506102d76107e2366004612732565b61173f565b3480156107f357600080fd5b506102d7610802366004612525565b611781565b60006001600160e01b0319821663780e9d6360e01b148061082c575061082c82611819565b92915050565b600a546001600160a01b031633146108655760405162461bcd60e51b815260040161085c906127a7565b60405180910390fd5b6011805460ff1916911515919091179055565b606060008054610887906127dc565b80601f01602080910402602001604051908101604052809291908181526020018280546108b3906127dc565b80156109005780601f106108d557610100808354040283529160200191610900565b820191906000526020600020905b8154815290600101906020018083116108e357829003601f168201915b5050505050905090565b6000818152600260205260408120546001600160a01b03166109835760405162461bcd60e51b815260206004820152602c60248201527f4552433732313a20617070726f76656420717565727920666f72206e6f6e657860448201526b34b9ba32b73a103a37b5b2b760a11b606482015260840161085c565b506000908152600460205260409020546001600160a01b031690565b60006109aa826111f4565b9050806001600160a01b0316836001600160a01b03161415610a185760405162461bcd60e51b815260206004820152602160248201527f4552433732313a20617070726f76616c20746f2063757272656e74206f776e656044820152603960f91b606482015260840161085c565b336001600160a01b0382161480610a345750610a348133610799565b610aa65760405162461bcd60e51b815260206004820152603860248201527f4552433732313a20617070726f76652063616c6c6572206973206e6f74206f7760448201527f6e6572206e6f7220617070726f76656420666f7220616c6c0000000000000000606482015260840161085c565b610ab08383611869565b505050565b610abf33826118d7565b610adb5760405162461bcd60e51b815260040161085c90612817565b610ab08383836119ce565b600a546001600160a01b03163314610b105760405162461bcd60e51b815260040161085c906127a7565b6011546301000000900460ff1615610b595760405162461bcd60e51b815260206004820152600c60248201526b105b1c9958591e481c185a5960a21b604482015260640161085c565b6011805463ff000000191663010000001790556014546040516000916001600160a01b03169069059a12ffa8b377980000908381818185875af1925050503d8060008114610bc3576040519150601f19603f3d011682016040523d82523d6000602084013e610bc8565b606091505b5050905080610bd657600080fd5b50565b6000610be4836112f9565b8210610c465760405162461bcd60e51b815260206004820152602b60248201527f455243373231456e756d657261626c653a206f776e657220696e646578206f7560448201526a74206f6620626f756e647360a81b606482015260840161085c565b506001600160a01b03919091166000908152600660209081526040808320938352929052205490565b6000805b601254811015610cd057826001600160a01b031660128281548110610c9a57610c9a612868565b6000918252602090912001546001600160a01b03161415610cbe5750600192915050565b80610cc881612894565b915050610c73565b50600092915050565b600a546001600160a01b03163314610d035760405162461bcd60e51b815260040161085c906127a7565b60118054911515620100000262ff000019909216919091179055565b600a546001600160a01b03163314610d495760405162461bcd60e51b815260040161085c906127a7565b6013546040516001600160a01b03909116904780156108fc02916000818181858888f19350505050610d7a57600080fd5b565b6000610d8760085490565b60115490915060ff1615610de75760405162461bcd60e51b815260206004820152602160248201527f5468652073616c652068617320656e646564206f72206973206f6e20706175736044820152606560f81b606482015260840161085c565b60008211610e375760405162461bcd60e51b815260206004820181905260248201527f546865206d696e696d756d20616d6f756e7420746f206d696e7420697320312e604482015260640161085c565b601054821115610eaf5760405162461bcd60e51b815260206004820152603a60248201527f596f7520657863656564656420746865206d6178696d756d20616d6f756e742060448201527f6f6620746f6b656e7320746f206d696e74206174206f6e63652e000000000000606482015260840161085c565b600f54610ebc83836128af565b1115610f255760405162461bcd60e51b815260206004820152603260248201527f546865206d6178696d756d20737570706c79206f6620746f6b656e7320686173604482015271103132b2b71037bb32b93932b0b1b432b21760711b606482015260840161085c565b600a546001600160a01b03163314610fff5760115462010000900460ff16151560011415610fa257610f5633610c6f565b610fa25760405162461bcd60e51b815260206004820152601860248201527f55736572206973206e6f742077686974656c69737465642e0000000000000000604482015260640161085c565b81600e54610fb091906128c7565b341015610fff5760405162461bcd60e51b815260206004820152601b60248201527f54686520616d6f756e742073656e7420697320746f6f206c6f772e0000000000604482015260640161085c565b60015b82811161102e5761101c8461101783856128af565b611b75565b8061102681612894565b915050611002565b50505050565b610ab0838383604051806020016040528060008152506114dd565b6060600061105c836112f9565b905060008167ffffffffffffffff81111561107957611079612584565b6040519080825280602002602001820160405280156110a2578160200160208202803683370190505b50905060005b828110156110e9576110ba8582610bd9565b8282815181106110cc576110cc612868565b6020908102919091010152806110e181612894565b9150506110a8565b509392505050565b600a546001600160a01b0316331461111b5760405162461bcd60e51b815260040161085c906127a7565b600e55565b600061112b60085490565b821061118e5760405162461bcd60e51b815260206004820152602c60248201527f455243373231456e756d657261626c653a20676c6f62616c20696e646578206f60448201526b7574206f6620626f756e647360a01b606482015260840161085c565b600882815481106111a1576111a1612868565b90600052602060002001549050919050565b600a546001600160a01b031633146111dd5760405162461bcd60e51b815260040161085c906127a7565b80516111f090600b9060208401906122b7565b5050565b6000818152600260205260408120546001600160a01b03168061082c5760405162461bcd60e51b815260206004820152602960248201527f4552433732313a206f776e657220717565727920666f72206e6f6e657869737460448201526832b73a103a37b5b2b760b91b606482015260840161085c565b600b8054611278906127dc565b80601f01602080910402602001604051908101604052809291908181526020018280546112a4906127dc565b80156112f15780601f106112c6576101008083540402835291602001916112f1565b820191906000526020600020905b8154815290600101906020018083116112d457829003601f168201915b505050505081565b60006001600160a01b0382166113645760405162461bcd60e51b815260206004820152602a60248201527f4552433732313a2062616c616e636520717565727920666f7220746865207a65604482015269726f206164647265737360b01b606482015260840161085c565b506001600160a01b031660009081526003602052604090205490565b600a546001600160a01b031633146113aa5760405162461bcd60e51b815260040161085c906127a7565b610d7a6000611b8f565b600a546001600160a01b031633146113de5760405162461bcd60e51b815260040161085c906127a7565b601480546001600160a01b0319166001600160a01b0392909216919091179055565b600a546001600160a01b0316331461142a5760405162461bcd60e51b815260040161085c906127a7565b601055565b600c8054611278906127dc565b606060018054610887906127dc565b6111f0338383611be1565b600a546001600160a01b031633146114805760405162461bcd60e51b815260040161085c906127a7565b6011805461ff001916610100179055565b600a546001600160a01b031633146114bb5760405162461bcd60e51b815260040161085c906127a7565b601380546001600160a01b0319166001600160a01b0392909216919091179055565b6114e733836118d7565b6115035760405162461bcd60e51b815260040161085c90612817565b61102e84848484611cb0565b6012818154811061151f57600080fd5b6000918252602090912001546001600160a01b0316905081565b600a546001600160a01b031633146115635760405162461bcd60e51b815260040161085c906127a7565b80516111f090600c9060208401906122b7565b600d8054611278906127dc565b6000818152600260205260409020546060906001600160a01b03166116025760405162461bcd60e51b815260206004820152602f60248201527f4552433732314d657461646174613a2055524920717565727920666f72206e6f60448201526e3732bc34b9ba32b73a103a37b5b2b760891b606482015260840161085c565b601154610100900460ff166116a357600c805461161e906127dc565b80601f016020809104026020016040519081016040528092919081815260200182805461164a906127dc565b80156116975780601f1061166c57610100808354040283529160200191611697565b820191906000526020600020905b81548152906001019060200180831161167a57829003601f168201915b50505050509050919050565b60006116ad611ce3565b905060008151116116cd57604051806020016040528060008152506116fb565b806116d784611cf2565b600d6040516020016116eb939291906128e6565b6040516020818303038152906040525b9392505050565b600a546001600160a01b0316331461172c5760405162461bcd60e51b815260040161085c906127a7565b80516111f090600d9060208401906122b7565b600a546001600160a01b031633146117695760405162461bcd60e51b815260040161085c906127a7565b6117756012600061233b565b610ab060128383612359565b600a546001600160a01b031633146117ab5760405162461bcd60e51b815260040161085c906127a7565b6001600160a01b0381166118105760405162461bcd60e51b815260206004820152602660248201527f4f776e61626c653a206e6577206f776e657220697320746865207a65726f206160448201526564647265737360d01b606482015260840161085c565b610bd681611b8f565b60006001600160e01b031982166380ac58cd60e01b148061184a57506001600160e01b03198216635b5e139f60e01b145b8061082c57506301ffc9a760e01b6001600160e01b031983161461082c565b600081815260046020526040902080546001600160a01b0319166001600160a01b038416908117909155819061189e826111f4565b6001600160a01b03167f8c5be1e5ebec7d5bd14f71427d1e84f3dd0314c0f7b2291e5b200ac8c7c3b92560405160405180910390a45050565b6000818152600260205260408120546001600160a01b03166119505760405162461bcd60e51b815260206004820152602c60248201527f4552433732313a206f70657261746f7220717565727920666f72206e6f6e657860448201526b34b9ba32b73a103a37b5b2b760a11b606482015260840161085c565b600061195b836111f4565b9050806001600160a01b0316846001600160a01b031614806119965750836001600160a01b031661198b8461090a565b6001600160a01b0316145b806119c657506001600160a01b0380821660009081526005602090815260408083209388168352929052205460ff165b949350505050565b826001600160a01b03166119e1826111f4565b6001600160a01b031614611a455760405162461bcd60e51b815260206004820152602560248201527f4552433732313a207472616e736665722066726f6d20696e636f72726563742060448201526437bbb732b960d91b606482015260840161085c565b6001600160a01b038216611aa75760405162461bcd60e51b8152602060048201526024808201527f4552433732313a207472616e7366657220746f20746865207a65726f206164646044820152637265737360e01b606482015260840161085c565b611ab2838383611df0565b611abd600082611869565b6001600160a01b0383166000908152600360205260408120805460019290611ae69084906129aa565b90915550506001600160a01b0382166000908152600360205260408120805460019290611b149084906128af565b909155505060008181526002602052604080822080546001600160a01b0319166001600160a01b0386811691821790925591518493918716917fddf252ad1be2c89b69c2b068fc378daa952ba7f163c4a11628f55a4df523b3ef91a4505050565b6111f0828260405180602001604052806000815250611ea8565b600a80546001600160a01b038381166001600160a01b0319831681179093556040519116919082907f8be0079c531659141344cd1fd0a4f28419497f9722a3daafe3b4186f6b6457e090600090a35050565b816001600160a01b0316836001600160a01b03161415611c435760405162461bcd60e51b815260206004820152601960248201527f4552433732313a20617070726f766520746f2063616c6c657200000000000000604482015260640161085c565b6001600160a01b03838116600081815260056020908152604080832094871680845294825291829020805460ff191686151590811790915591519182527f17307eab39ab6107e8899845ad3d59bd9653f200f220920489ca2b5937696c31910160405180910390a3505050565b611cbb8484846119ce565b611cc784848484611edb565b61102e5760405162461bcd60e51b815260040161085c906129c1565b6060600b8054610887906127dc565b606081611d165750506040805180820190915260018152600360fc1b602082015290565b8160005b8115611d405780611d2a81612894565b9150611d399050600a83612a29565b9150611d1a565b60008167ffffffffffffffff811115611d5b57611d5b612584565b6040519080825280601f01601f191660200182016040528015611d85576020820181803683370190505b5090505b84156119c657611d9a6001836129aa565b9150611da7600a86612a3d565b611db29060306128af565b60f81b818381518110611dc757611dc7612868565b60200101906001600160f81b031916908160001a905350611de9600a86612a29565b9450611d89565b6001600160a01b038316611e4b57611e4681600880546000838152600960205260408120829055600182018355919091527ff3f7a9fe364faab93b216da50a3214154f22a0a2b415b23a84c8169e8b636ee30155565b611e6e565b816001600160a01b0316836001600160a01b031614611e6e57611e6e8382611fd9565b6001600160a01b038216611e8557610ab081612076565b826001600160a01b0316826001600160a01b031614610ab057610ab08282612125565b611eb28383612169565b611ebf6000848484611edb565b610ab05760405162461bcd60e51b815260040161085c906129c1565b60006001600160a01b0384163b15611fce57604051630a85bd0160e11b81526001600160a01b0385169063150b7a0290611f1f903390899088908890600401612a51565b6020604051808303816000875af1925050508015611f5a575060408051601f3d908101601f19168201909252611f5791810190612a8e565b60015b611fb4573d808015611f88576040519150601f19603f3d011682016040523d82523d6000602084013e611f8d565b606091505b508051611fac5760405162461bcd60e51b815260040161085c906129c1565b805181602001fd5b6001600160e01b031916630a85bd0160e11b1490506119c6565b506001949350505050565b60006001611fe6846112f9565b611ff091906129aa565b600083815260076020526040902054909150808214612043576001600160a01b03841660009081526006602090815260408083208584528252808320548484528184208190558352600790915290208190555b5060009182526007602090815260408084208490556001600160a01b039094168352600681528383209183525290812055565b600854600090612088906001906129aa565b600083815260096020526040812054600880549394509092849081106120b0576120b0612868565b9060005260206000200154905080600883815481106120d1576120d1612868565b600091825260208083209091019290925582815260099091526040808220849055858252812055600880548061210957612109612aab565b6001900381819060005260206000200160009055905550505050565b6000612130836112f9565b6001600160a01b039093166000908152600660209081526040808320868452825280832085905593825260079052919091209190915550565b6001600160a01b0382166121bf5760405162461bcd60e51b815260206004820181905260248201527f4552433732313a206d696e7420746f20746865207a65726f2061646472657373604482015260640161085c565b6000818152600260205260409020546001600160a01b0316156122245760405162461bcd60e51b815260206004820152601c60248201527f4552433732313a20746f6b656e20616c7265616479206d696e74656400000000604482015260640161085c565b61223060008383611df0565b6001600160a01b03821660009081526003602052604081208054600192906122599084906128af565b909155505060008181526002602052604080822080546001600160a01b0319166001600160a01b03861690811790915590518392907fddf252ad1be2c89b69c2b068fc378daa952ba7f163c4a11628f55a4df523b3ef908290a45050565b8280546122c3906127dc565b90600052602060002090601f0160209004810192826122e5576000855561232b565b82601f106122fe57805160ff191683800117855561232b565b8280016001018555821561232b579182015b8281111561232b578251825591602001919060010190612310565b506123379291506123ac565b5090565b5080546000825590600052602060002090810190610bd691906123ac565b82805482825590600052602060002090810192821561232b579160200282015b8281111561232b5781546001600160a01b0319166001600160a01b03843516178255602090920191600190910190612379565b5b8082111561233757600081556001016123ad565b6001600160e01b031981168114610bd657600080fd5b6000602082840312156123e957600080fd5b81356116fb816123c1565b8035801515811461240457600080fd5b919050565b60006020828403121561241b57600080fd5b6116fb826123f4565b60005b8381101561243f578181015183820152602001612427565b8381111561102e5750506000910152565b60008151808452612468816020860160208601612424565b601f01601f19169290920160200192915050565b6020815260006116fb6020830184612450565b6000602082840312156124a157600080fd5b5035919050565b80356001600160a01b038116811461240457600080fd5b600080604083850312156124d257600080fd5b6124db836124a8565b946020939093013593505050565b6000806000606084860312156124fe57600080fd5b612507846124a8565b9250612515602085016124a8565b9150604084013590509250925092565b60006020828403121561253757600080fd5b6116fb826124a8565b6020808252825182820181905260009190848201906040850190845b818110156125785783518352928401929184019160010161255c565b50909695505050505050565b634e487b7160e01b600052604160045260246000fd5b600067ffffffffffffffff808411156125b5576125b5612584565b604051601f8501601f19908116603f011681019082821181831017156125dd576125dd612584565b816040528093508581528686860111156125f657600080fd5b858560208301376000602087830101525050509392505050565b60006020828403121561262257600080fd5b813567ffffffffffffffff81111561263957600080fd5b8201601f8101841361264a57600080fd5b6119c68482356020840161259a565b6000806040838503121561266c57600080fd5b612675836124a8565b9150612683602084016123f4565b90509250929050565b600080600080608085870312156126a257600080fd5b6126ab856124a8565b93506126b9602086016124a8565b925060408501359150606085013567ffffffffffffffff8111156126dc57600080fd5b8501601f810187136126ed57600080fd5b6126fc8782356020840161259a565b91505092959194509250565b6000806040838503121561271b57600080fd5b612724836124a8565b9150612683602084016124a8565b6000806020838503121561274557600080fd5b823567ffffffffffffffff8082111561275d57600080fd5b818501915085601f83011261277157600080fd5b81358181111561278057600080fd5b8660208260051b850101111561279557600080fd5b60209290920196919550909350505050565b6020808252818101527f4f776e61626c653a2063616c6c6572206973206e6f7420746865206f776e6572604082015260600190565b600181811c908216806127f057607f821691505b6020821081141561281157634e487b7160e01b600052602260045260246000fd5b50919050565b60208082526031908201527f4552433732313a207472616e736665722063616c6c6572206973206e6f74206f6040820152701ddb995c881b9bdc88185c1c1c9bdd9959607a1b606082015260800190565b634e487b7160e01b600052603260045260246000fd5b634e487b7160e01b600052601160045260246000fd5b60006000198214156128a8576128a861287e565b5060010190565b600082198211156128c2576128c261287e565b500190565b60008160001904831182151516156128e1576128e161287e565b500290565b6000845160206128f98285838a01612424565b85519184019161290c8184848a01612424565b8554920191600090600181811c908083168061292957607f831692505b85831081141561294757634e487b7160e01b85526022600452602485fd5b80801561295b576001811461296c57612999565b60ff19851688528388019550612999565b60008b81526020902060005b858110156129915781548a820152908401908801612978565b505083880195505b50939b9a5050505050505050505050565b6000828210156129bc576129bc61287e565b500390565b60208082526032908201527f4552433732313a207472616e7366657220746f206e6f6e20455243373231526560408201527131b2b4bb32b91034b6b83632b6b2b73a32b960711b606082015260800190565b634e487b7160e01b600052601260045260246000fd5b600082612a3857612a38612a13565b500490565b600082612a4c57612a4c612a13565b500690565b6001600160a01b0385811682528416602082015260408101839052608060608201819052600090612a8490830184612450565b9695505050505050565b600060208284031215612aa057600080fd5b81516116fb816123c1565b634e487b7160e01b600052603160045260246000fdfea2646970667358221220b4aece2e8540c3272d22caa6b7dd5ff686cb3d60b14c73fc500f593bba1953fb64736f6c634300080a00334f776e61626c653a2063616c6c6572206973206e6f7420746865206f776e6572",
  "linkReferences": {},
  "deployedLinkReferences": {}
}